{
  "address": "0x76a3975f90AdC1F8f00a6af5699381C2998886fa",
  "abi": [
    {
      "inputs": [
        {
          "internalType": "address",
          "name": "vrfCoordinatorV2",
          "type": "address"
        },
        {
          "internalType": "uint256",
          "name": "entranceFee",
          "type": "uint256"
        },
        {
          "internalType": "bytes32",
          "name": "gasLane",
          "type": "bytes32"
        },
        {
          "internalType": "uint64",
          "name": "subscriptionId",
          "type": "uint64"
        },
        {
          "internalType": "uint32",
          "name": "callBackGasLimit",
          "type": "uint32"
        },
        {
          "internalType": "uint256",
          "name": "interval",
          "type": "uint256"
        }
      ],
      "stateMutability": "nonpayable",
      "type": "constructor"
    },
    {
      "inputs": [
        {
          "internalType": "address",
          "name": "have",
          "type": "address"
        },
        {
          "internalType": "address",
          "name": "want",
          "type": "address"
        }
      ],
      "name": "OnlyCoordinatorCanFulfill",
      "type": "error"
    },
    {
      "inputs": [],
      "name": "Raffle_TransferFailed",
      "type": "error"
    },
    {
      "inputs": [],
      "name": "Raffle__NotEnoughETHEntered",
      "type": "error"
    },
    {
      "inputs": [],
      "name": "Raffle__NotOpen",
      "type": "error"
    },
    {
      "inputs": [
        {
          "internalType": "uint256",
          "name": "currentBalance",
          "type": "uint256"
        },
        {
          "internalType": "uint256",
          "name": "numPlayers",
          "type": "uint256"
        },
        {
          "internalType": "uint256",
          "name": "RaffleState",
          "type": "uint256"
        }
      ],
      "name": "Raffle__UpkeepNotNeeded",
      "type": "error"
    },
    {
      "anonymous": false,
      "inputs": [
        {
          "indexed": true,
          "internalType": "address",
          "name": "player",
          "type": "address"
        }
      ],
      "name": "RaffleEnter",
      "type": "event"
    },
    {
      "anonymous": false,
      "inputs": [
        {
          "indexed": true,
          "internalType": "uint256",
          "name": "requestId",
          "type": "uint256"
        }
      ],
      "name": "RequestedRaffleWinner",
      "type": "event"
    },
    {
      "anonymous": false,
      "inputs": [
        {
          "indexed": true,
          "internalType": "address",
          "name": "winnerId",
          "type": "address"
        }
      ],
      "name": "WinnerPicked",
      "type": "event"
    },
    {
      "inputs": [],
      "name": "checkRaffleState",
      "outputs": [
        {
          "internalType": "enum Raffle.RaffleState",
          "name": "",
          "type": "uint8"
        }
      ],
      "stateMutability": "view",
      "type": "function"
    },
    {
      "inputs": [
        {
          "internalType": "bytes",
          "name": "",
          "type": "bytes"
        }
      ],
      "name": "checkUpkeep",
      "outputs": [
        {
          "internalType": "bool",
          "name": "upkeepNeeded",
          "type": "bool"
        },
        {
          "internalType": "bytes",
          "name": "",
          "type": "bytes"
        }
      ],
      "stateMutability": "view",
      "type": "function"
    },
    {
      "inputs": [],
      "name": "enterRaffle",
      "outputs": [],
      "stateMutability": "payable",
      "type": "function"
    },
    {
      "inputs": [],
      "name": "getEntranceFee",
      "outputs": [
        {
          "internalType": "uint256",
          "name": "",
          "type": "uint256"
        }
      ],
      "stateMutability": "view",
      "type": "function"
    },
    {
      "inputs": [],
      "name": "getInterval",
      "outputs": [
        {
          "internalType": "uint256",
          "name": "",
          "type": "uint256"
        }
      ],
      "stateMutability": "view",
      "type": "function"
    },
    {
      "inputs": [],
      "name": "getLatestTimeStamp",
      "outputs": [
        {
          "internalType": "uint256",
          "name": "",
          "type": "uint256"
        }
      ],
      "stateMutability": "view",
      "type": "function"
    },
    {
      "inputs": [],
      "name": "getNumWords",
      "outputs": [
        {
          "internalType": "uint256",
          "name": "",
          "type": "uint256"
        }
      ],
      "stateMutability": "pure",
      "type": "function"
    },
    {
      "inputs": [],
      "name": "getNumberOfPlayers",
      "outputs": [
        {
          "internalType": "uint256",
          "name": "",
          "type": "uint256"
        }
      ],
      "stateMutability": "view",
      "type": "function"
    },
    {
      "inputs": [
        {
          "internalType": "uint256",
          "name": "index",
          "type": "uint256"
        }
      ],
      "name": "getPlayer",
      "outputs": [
        {
          "internalType": "address",
          "name": "",
          "type": "address"
        }
      ],
      "stateMutability": "view",
      "type": "function"
    },
    {
      "inputs": [],
      "name": "getRecentWinner",
      "outputs": [
        {
          "internalType": "address",
          "name": "",
          "type": "address"
        }
      ],
      "stateMutability": "view",
      "type": "function"
    },
    {
      "inputs": [],
      "name": "getRequestConfirmations",
      "outputs": [
        {
          "internalType": "uint256",
          "name": "",
          "type": "uint256"
        }
      ],
      "stateMutability": "pure",
      "type": "function"
    },
    {
      "inputs": [
        {
          "internalType": "bytes",
          "name": "",
          "type": "bytes"
        }
      ],
      "name": "performUpkeep",
      "outputs": [],
      "stateMutability": "nonpayable",
      "type": "function"
    },
    {
      "inputs": [
        {
          "internalType": "uint256",
          "name": "requestId",
          "type": "uint256"
        },
        {
          "internalType": "uint256[]",
          "name": "randomWords",
          "type": "uint256[]"
        }
      ],
      "name": "rawFulfillRandomWords",
      "outputs": [],
      "stateMutability": "nonpayable",
      "type": "function"
    }
  ],
  "transactionHash": "0x9f6a1ca7b9d9289464621bb1b80d9e78680bfd69454e618ccc2bf7a497ecfa11",
  "args": [
    "0x8103B0A8A00be2DDC778e6e7eaa21791Cd364625",
    "10000000000000000",
    "0x474e34a077df58807dbe9c96d3c009b23b3c6d0cce433e59bbf5b34f823bc56c",
    "2758",
    "500000",
    "30"
  ],
  "numDeployments": 1,
  "solcInputHash": "0e227849dc51b7574c2fee8746afd88a",
  "bytecode": "0x61016060405234801561001157600080fd5b506040516117e33803806117e383398181016040528101906100339190610270565b858073ffffffffffffffffffffffffffffffffffffffff1660808173ffffffffffffffffffffffffffffffffffffffff1681525050508460a081815250508573ffffffffffffffffffffffffffffffffffffffff1660c08173ffffffffffffffffffffffffffffffffffffffff16815250508360e081815250508267ffffffffffffffff166101008167ffffffffffffffff16815250508163ffffffff166101208163ffffffff16815250506000600160146101000a81548160ff02191690836001811115610105576101046102fd565b5b02179055504260028190555080610140818152505050505050505061032c565b600080fd5b600073ffffffffffffffffffffffffffffffffffffffff82169050919050565b60006101558261012a565b9050919050565b6101658161014a565b811461017057600080fd5b50565b6000815190506101828161015c565b92915050565b6000819050919050565b61019b81610188565b81146101a657600080fd5b50565b6000815190506101b881610192565b92915050565b6000819050919050565b6101d1816101be565b81146101dc57600080fd5b50565b6000815190506101ee816101c8565b92915050565b600067ffffffffffffffff82169050919050565b610211816101f4565b811461021c57600080fd5b50565b60008151905061022e81610208565b92915050565b600063ffffffff82169050919050565b61024d81610234565b811461025857600080fd5b50565b60008151905061026a81610244565b92915050565b60008060008060008060c0878903121561028d5761028c610125565b5b600061029b89828a01610173565b96505060206102ac89828a016101a9565b95505060406102bd89828a016101df565b94505060606102ce89828a0161021f565b93505060806102df89828a0161025b565b92505060a06102f089828a016101a9565b9150509295509295509295565b7f4e487b7100000000000000000000000000000000000000000000000000000000600052602160045260246000fd5b60805160a05160c05160e05161010051610120516101405161144861039b600039600081816107e7015261086a015260006106a50152600061068201526000610661015260006106250152600081816102fa01526103f7015260008181610337015261038b01526114486000f3fe6080604052600436106100c25760003560e01c8063473f1ddc1161007f5780636e04ff0d116100595780636e04ff0d1461022557806391ad27b414610263578063e55ae4e81461028e578063fd6673f5146102cb576100c2565b8063473f1ddc146101a457806353a2c19a146101cf5780635f1b0fd8146101fa576100c2565b806309bc33a7146100c7578063104d31b7146100f25780631fe543e31461011d5780632cfcc53914610146578063320229eb146101505780634585e33b1461017b575b600080fd5b3480156100d357600080fd5b506100dc6102f6565b6040516100e99190610bd2565b60405180910390f35b3480156100fe57600080fd5b5061010761031e565b6040516101149190610c64565b60405180910390f35b34801561012957600080fd5b50610144600480360381019061013f9190610e18565b610335565b005b61014e6103f5565b005b34801561015c57600080fd5b50610165610564565b6040516101729190610bd2565b60405180910390f35b34801561018757600080fd5b506101a2600480360381019061019d9190610ecf565b61056e565b005b3480156101b057600080fd5b506101b961075e565b6040516101c69190610f5d565b60405180910390f35b3480156101db57600080fd5b506101e4610788565b6040516101f19190610bd2565b60405180910390f35b34801561020657600080fd5b5061020f610797565b60405161021c9190610bd2565b60405180910390f35b34801561023157600080fd5b5061024c6004803603810190610247919061102d565b6107a4565b60405161025a929190611110565b60405180910390f35b34801561026f57600080fd5b50610278610866565b6040516102859190610bd2565b60405180910390f35b34801561029a57600080fd5b506102b560048036038101906102b09190611140565b61088e565b6040516102c29190610f5d565b60405180910390f35b3480156102d757600080fd5b506102e06108d5565b6040516102ed9190610bd2565b60405180910390f35b60007f0000000000000000000000000000000000000000000000000000000000000000905090565b6000600160149054906101000a900460ff16905090565b7f000000000000000000000000000000000000000000000000000000000000000073ffffffffffffffffffffffffffffffffffffffff163373ffffffffffffffffffffffffffffffffffffffff16146103e757337f00000000000000000000000000000000000000000000000000000000000000006040517f1cf993f40000000000000000000000000000000000000000000000000000000081526004016103de92919061116d565b60405180910390fd5b6103f182826108e1565b5050565b7f000000000000000000000000000000000000000000000000000000000000000034101561044f576040517fbd4e069500000000000000000000000000000000000000000000000000000000815260040160405180910390fd5b6000339080600181540180825580915050600190039060005260206000200160009091909190916101000a81548173ffffffffffffffffffffffffffffffffffffffff021916908373ffffffffffffffffffffffffffffffffffffffff160217905550600060018111156104c6576104c5610bed565b5b600160149054906101000a900460ff1660018111156104e8576104e7610bed565b5b1461051f576040517f1425571c00000000000000000000000000000000000000000000000000000000815260040160405180910390fd5b3373ffffffffffffffffffffffffffffffffffffffff167f0805e1d667bddb8a95f0f09880cf94f403fb596ce79928d9f29b74203ba284d460405160405180910390a2565b6000600254905090565b6000610588604051806020016040528060008152506107a4565b509050806105f75747600080549050600160149054906101000a900460ff1660018111156105b9576105b8610bed565b5b6040517f584327aa0000000000000000000000000000000000000000000000000000000081526004016105ee93929190611196565b60405180910390fd5b60018060146101000a81548160ff0219169083600181111561061c5761061b610bed565b5b021790555060007f000000000000000000000000000000000000000000000000000000000000000073ffffffffffffffffffffffffffffffffffffffff16635d3b1d307f00000000000000000000000000000000000000000000000000000000000000007f000000000000000000000000000000000000000000000000000000000000000060037f000000000000000000000000000000000000000000000000000000000000000060016040518663ffffffff1660e01b81526004016106e6959493929190611245565b6020604051808303816000875af1158015610705573d6000803e3d6000fd5b505050506040513d601f19601f8201168201806040525081019061072991906112ad565b9050807fcd6e45c8998311cab7e9d4385596cac867e20a0587194b954fa3a731c93ce78b60405160405180910390a250505050565b6000600160009054906101000a900473ffffffffffffffffffffffffffffffffffffffff16905090565b6000600163ffffffff16905090565b6000600361ffff16905090565b600060606000600160149054906101000a900460ff1660018111156107cc576107cb610bed565b5b600060018111156107e0576107df610bed565b5b14905060007f0000000000000000000000000000000000000000000000000000000000000000600254426108149190611309565b119050600080600080549050119050600080471190508380156108345750825b801561083d5750815b80156108465750805b955085604051806020016040528060008152509550955050505050915091565b60007f0000000000000000000000000000000000000000000000000000000000000000905090565b60008082815481106108a3576108a261133d565b5b9060005260206000200160009054906101000a900473ffffffffffffffffffffffffffffffffffffffff169050919050565b60008080549050905090565b60008080549050826000815181106108fc576108fb61133d565b5b602002602001015161090e919061139b565b905060008082815481106109255761092461133d565b5b9060005260206000200160009054906101000a900473ffffffffffffffffffffffffffffffffffffffff16905080600160006101000a81548173ffffffffffffffffffffffffffffffffffffffff021916908373ffffffffffffffffffffffffffffffffffffffff1602179055506000600160146101000a81548160ff021916908360018111156109b9576109b8610bed565b5b0217905550600067ffffffffffffffff8111156109d9576109d8610cd5565b5b604051908082528060200260200182016040528015610a075781602001602082028036833780820191505090505b5060009080519060200190610a1d929190610b12565b504260028190555060008173ffffffffffffffffffffffffffffffffffffffff1647604051610a4b906113fd565b60006040518083038185875af1925050503d8060008114610a88576040519150601f19603f3d011682016040523d82523d6000602084013e610a8d565b606091505b5050905080610ac8576040517fba31c4f300000000000000000000000000000000000000000000000000000000815260040160405180910390fd5b8173ffffffffffffffffffffffffffffffffffffffff167f5b690ec4a06fe979403046eaeea5b3ce38524683c3001f662c8b5a829632f7df60405160405180910390a25050505050565b828054828255906000526020600020908101928215610b8b579160200282015b82811115610b8a5782518260006101000a81548173ffffffffffffffffffffffffffffffffffffffff021916908373ffffffffffffffffffffffffffffffffffffffff16021790555091602001919060010190610b32565b5b509050610b989190610b9c565b5090565b5b80821115610bb5576000816000905550600101610b9d565b5090565b6000819050919050565b610bcc81610bb9565b82525050565b6000602082019050610be76000830184610bc3565b92915050565b7f4e487b7100000000000000000000000000000000000000000000000000000000600052602160045260246000fd5b60028110610c2d57610c2c610bed565b5b50565b6000819050610c3e82610c1c565b919050565b6000610c4e82610c30565b9050919050565b610c5e81610c43565b82525050565b6000602082019050610c796000830184610c55565b92915050565b6000604051905090565b600080fd5b600080fd5b610c9c81610bb9565b8114610ca757600080fd5b50565b600081359050610cb981610c93565b92915050565b600080fd5b6000601f19601f8301169050919050565b7f4e487b7100000000000000000000000000000000000000000000000000000000600052604160045260246000fd5b610d0d82610cc4565b810181811067ffffffffffffffff82111715610d2c57610d2b610cd5565b5b80604052505050565b6000610d3f610c7f565b9050610d4b8282610d04565b919050565b600067ffffffffffffffff821115610d6b57610d6a610cd5565b5b602082029050602081019050919050565b600080fd5b6000610d94610d8f84610d50565b610d35565b90508083825260208201905060208402830185811115610db757610db6610d7c565b5b835b81811015610de05780610dcc8882610caa565b845260208401935050602081019050610db9565b5050509392505050565b600082601f830112610dff57610dfe610cbf565b5b8135610e0f848260208601610d81565b91505092915050565b60008060408385031215610e2f57610e2e610c89565b5b6000610e3d85828601610caa565b925050602083013567ffffffffffffffff811115610e5e57610e5d610c8e565b5b610e6a85828601610dea565b9150509250929050565b600080fd5b60008083601f840112610e8f57610e8e610cbf565b5b8235905067ffffffffffffffff811115610eac57610eab610e74565b5b602083019150836001820283011115610ec857610ec7610d7c565b5b9250929050565b60008060208385031215610ee657610ee5610c89565b5b600083013567ffffffffffffffff811115610f0457610f03610c8e565b5b610f1085828601610e79565b92509250509250929050565b600073ffffffffffffffffffffffffffffffffffffffff82169050919050565b6000610f4782610f1c565b9050919050565b610f5781610f3c565b82525050565b6000602082019050610f726000830184610f4e565b92915050565b600080fd5b600067ffffffffffffffff821115610f9857610f97610cd5565b5b610fa182610cc4565b9050602081019050919050565b82818337600083830152505050565b6000610fd0610fcb84610f7d565b610d35565b905082815260208101848484011115610fec57610feb610f78565b5b610ff7848285610fae565b509392505050565b600082601f83011261101457611013610cbf565b5b8135611024848260208601610fbd565b91505092915050565b60006020828403121561104357611042610c89565b5b600082013567ffffffffffffffff81111561106157611060610c8e565b5b61106d84828501610fff565b91505092915050565b60008115159050919050565b61108b81611076565b82525050565b600081519050919050565b600082825260208201905092915050565b60005b838110156110cb5780820151818401526020810190506110b0565b60008484015250505050565b60006110e282611091565b6110ec818561109c565b93506110fc8185602086016110ad565b61110581610cc4565b840191505092915050565b60006040820190506111256000830185611082565b818103602083015261113781846110d7565b90509392505050565b60006020828403121561115657611155610c89565b5b600061116484828501610caa565b91505092915050565b60006040820190506111826000830185610f4e565b61118f6020830184610f4e565b9392505050565b60006060820190506111ab6000830186610bc3565b6111b86020830185610bc3565b6111c56040830184610bc3565b949350505050565b6000819050919050565b6111e0816111cd565b82525050565b600067ffffffffffffffff82169050919050565b611203816111e6565b82525050565b600061ffff82169050919050565b61122081611209565b82525050565b600063ffffffff82169050919050565b61123f81611226565b82525050565b600060a08201905061125a60008301886111d7565b61126760208301876111fa565b6112746040830186611217565b6112816060830185611236565b61128e6080830184611236565b9695505050505050565b6000815190506112a781610c93565b92915050565b6000602082840312156112c3576112c2610c89565b5b60006112d184828501611298565b91505092915050565b7f4e487b7100000000000000000000000000000000000000000000000000000000600052601160045260246000fd5b600061131482610bb9565b915061131f83610bb9565b9250828203905081811115611337576113366112da565b5b92915050565b7f4e487b7100000000000000000000000000000000000000000000000000000000600052603260045260246000fd5b7f4e487b7100000000000000000000000000000000000000000000000000000000600052601260045260246000fd5b60006113a682610bb9565b91506113b183610bb9565b9250826113c1576113c061136c565b5b828206905092915050565b600081905092915050565b50565b60006113e76000836113cc565b91506113f2826113d7565b600082019050919050565b6000611408826113da565b915081905091905056fea2646970667358221220fbed62d069289dc981aaa6f2024ec8a7b048698118efd9519e8a86383b5d6bd664736f6c634300081c0033",
  "devdoc": {
    "kind": "dev",
    "methods": {},
    "version": 1
  },
  "userdoc": {
    "kind": "user",
    "methods": {},
    "version": 1
  },
  "storageLayout": {
    "storage": [
      {
        "astId": 189,
        "contract": "contracts/Raffle.sol:Raffle",
        "label": "s_players",
        "offset": 0,
        "slot": "0",
        "type": "t_array(t_address_payable)dyn_storage"
      },
      {
        "astId": 208,
        "contract": "contracts/Raffle.sol:Raffle",
        "label": "s_recentWinner",
        "offset": 0,
        "slot": "1",
        "type": "t_address"
      },
      {
        "astId": 211,
        "contract": "contracts/Raffle.sol:Raffle",
        "label": "s_RaffleState",
        "offset": 20,
        "slot": "1",
        "type": "t_enum(RaffleState)184"
      },
      {
        "astId": 213,
        "contract": "contracts/Raffle.sol:Raffle",
        "label": "s_lastTimeStamp",
        "offset": 0,
        "slot": "2",
        "type": "t_uint256"
      }
    ],
    "types": {
      "t_address": {
        "encoding": "inplace",
        "label": "address",
        "numberOfBytes": "20"
      },
      "t_address_payable": {
        "encoding": "inplace",
        "label": "address payable",
        "numberOfBytes": "20"
      },
      "t_array(t_address_payable)dyn_storage": {
        "base": "t_address_payable",
        "encoding": "dynamic_array",
        "label": "address payable[]",
        "numberOfBytes": "32"
      },
      "t_enum(RaffleState)184": {
        "encoding": "inplace",
        "label": "enum Raffle.RaffleState",
        "numberOfBytes": "1"
      },
      "t_uint256": {
        "encoding": "inplace",
        "label": "uint256",
        "numberOfBytes": "32"
      }
    }
  }
}